{
  "_format": "hh-sol-artifact-1",
  "contractName": "VotingSystem",
  "sourceName": "contracts/VotingSystem.sol",
  "abi": [
    {
      "inputs": [],
      "stateMutability": "nonpayable",
      "type": "constructor"
    },
    {
      "anonymous": false,
      "inputs": [
        {
          "indexed": false,
          "internalType": "uint256",
          "name": "pollId",
          "type": "uint256"
        },
        {
          "indexed": false,
          "internalType": "string",
          "name": "rollno",
          "type": "string"
        },
        {
          "indexed": false,
          "internalType": "string",
          "name": "name",
          "type": "string"
        },
        {
          "indexed": false,
          "internalType": "string",
          "name": "branch",
          "type": "string"
        },
        {
          "indexed": false,
          "internalType": "uint256",
          "name": "cgpa",
          "type": "uint256"
        }
      ],
      "name": "CandidateAdded",
      "type": "event"
    },
    {
      "anonymous": false,
      "inputs": [
        {
          "indexed": false,
          "internalType": "uint256",
          "name": "pollId",
          "type": "uint256"
        },
        {
          "indexed": false,
          "internalType": "string",
          "name": "title",
          "type": "string"
        },
        {
          "indexed": false,
          "internalType": "string",
          "name": "description",
          "type": "string"
        },
        {
          "indexed": false,
          "internalType": "uint256",
          "name": "deadline",
          "type": "uint256"
        }
      ],
      "name": "PollCreated",
      "type": "event"
    },
    {
      "anonymous": false,
      "inputs": [
        {
          "indexed": false,
          "internalType": "uint256",
          "name": "pollId",
          "type": "uint256"
        },
        {
          "indexed": false,
          "internalType": "string",
          "name": "title",
          "type": "string"
        }
      ],
      "name": "PollEnded",
      "type": "event"
    },
    {
      "anonymous": false,
      "inputs": [
        {
          "indexed": false,
          "internalType": "uint256",
          "name": "pollId",
          "type": "uint256"
        },
        {
          "indexed": false,
          "internalType": "address",
          "name": "voter",
          "type": "address"
        },
        {
          "indexed": false,
          "internalType": "string",
          "name": "rollno",
          "type": "string"
        }
      ],
      "name": "Voted",
      "type": "event"
    },
    {
      "inputs": [
        {
          "internalType": "uint256",
          "name": "_pollId",
          "type": "uint256"
        },
        {
          "internalType": "string",
          "name": "_name",
          "type": "string"
        },
        {
          "internalType": "string",
          "name": "_rollno",
          "type": "string"
        },
        {
          "internalType": "string",
          "name": "_branch",
          "type": "string"
        },
        {
          "internalType": "uint256",
          "name": "_cgpa",
          "type": "uint256"
        }
      ],
      "name": "addCandidateToPoll",
      "outputs": [],
      "stateMutability": "nonpayable",
      "type": "function"
    },
    {
      "inputs": [
        {
          "internalType": "uint256",
          "name": "_pollId",
          "type": "uint256"
        }
      ],
      "name": "checkAndEmitPollEnd",
      "outputs": [],
      "stateMutability": "nonpayable",
      "type": "function"
    },
    {
      "inputs": [
        {
          "internalType": "string",
          "name": "_title",
          "type": "string"
        },
        {
          "internalType": "string",
          "name": "_description",
          "type": "string"
        },
        {
          "internalType": "uint256",
          "name": "_deadline",
          "type": "uint256"
        }
      ],
      "name": "createPoll",
      "outputs": [],
      "stateMutability": "nonpayable",
      "type": "function"
    },
    {
      "inputs": [
        {
          "internalType": "uint256",
          "name": "_pollId",
          "type": "uint256"
        }
      ],
      "name": "getCandidateRollnos",
      "outputs": [
        {
          "internalType": "string[]",
          "name": "",
          "type": "string[]"
        }
      ],
      "stateMutability": "view",
      "type": "function"
    },
    {
      "inputs": [
        {
          "internalType": "uint256",
          "name": "_pollId",
          "type": "uint256"
        }
      ],
      "name": "getPollResults",
      "outputs": [
        {
          "components": [
            {
              "internalType": "string",
              "name": "name",
              "type": "string"
            },
            {
              "internalType": "string",
              "name": "rollno",
              "type": "string"
            },
            {
              "internalType": "string",
              "name": "branch",
              "type": "string"
            },
            {
              "internalType": "uint256",
              "name": "cgpa",
              "type": "uint256"
            },
            {
              "internalType": "uint256",
              "name": "voteCount",
              "type": "uint256"
            }
          ],
          "internalType": "struct VotingSystem.Candidate[]",
          "name": "",
          "type": "tuple[]"
        }
      ],
      "stateMutability": "view",
      "type": "function"
    },
    {
      "inputs": [
        {
          "internalType": "uint256",
          "name": "_pollId",
          "type": "uint256"
        }
      ],
      "name": "getPollStatus",
      "outputs": [
        {
          "internalType": "string",
          "name": "",
          "type": "string"
        }
      ],
      "stateMutability": "view",
      "type": "function"
    },
    {
      "inputs": [],
      "name": "owner",
      "outputs": [
        {
          "internalType": "address",
          "name": "",
          "type": "address"
        }
      ],
      "stateMutability": "view",
      "type": "function"
    },
    {
      "inputs": [],
      "name": "pollCount",
      "outputs": [
        {
          "internalType": "uint256",
          "name": "",
          "type": "uint256"
        }
      ],
      "stateMutability": "view",
      "type": "function"
    },
    {
      "inputs": [
        {
          "internalType": "uint256",
          "name": "",
          "type": "uint256"
        }
      ],
      "name": "polls",
      "outputs": [
        {
          "internalType": "string",
          "name": "title",
          "type": "string"
        },
        {
          "internalType": "string",
          "name": "description",
          "type": "string"
        },
        {
          "internalType": "uint256",
          "name": "deadline",
          "type": "uint256"
        }
      ],
      "stateMutability": "view",
      "type": "function"
    },
    {
      "inputs": [
        {
          "internalType": "uint256",
          "name": "_pollId",
          "type": "uint256"
        },
        {
          "internalType": "string",
          "name": "_rollno",
          "type": "string"
        }
      ],
      "name": "voteInPoll",
      "outputs": [],
      "stateMutability": "nonpayable",
      "type": "function"
    }
  ],
  "bytecode": "0x608060405234801561001057600080fd5b50336000806101000a81548173ffffffffffffffffffffffffffffffffffffffff021916908373ffffffffffffffffffffffffffffffffffffffff1602179055506121e6806100606000396000f3fe608060405234801561001057600080fd5b506004361061009e5760003560e01c80638da5cb5b116100665780638da5cb5b146101575780639207891d14610175578063ac2f007414610193578063b0c095e3146101c5578063be1db1da146101f55761009e565b806333b4097b146100a357806347ab68f5146100d35780634939ea80146101035780635dbb80631461011f578063668c22751461013b575b600080fd5b6100bd60048036038101906100b8919061102c565b610211565b6040516100ca919061123e565b60405180910390f35b6100ed60048036038101906100e8919061102c565b6105f4565b6040516100fa9190611322565b60405180910390f35b61011d6004803603810190610118919061102c565b6106e9565b005b61013960048036038101906101349190611479565b610787565b005b61015560048036038101906101509190611504565b6108fa565b005b61015f610b2b565b60405161016c91906115a1565b60405180910390f35b61017d610b4f565b60405161018a91906115cb565b60405180910390f35b6101ad60048036038101906101a8919061102c565b610b55565b6040516101bc93929190611630565b60405180910390f35b6101df60048036038101906101da919061102c565b610c8f565b6040516101ec9190611675565b60405180910390f35b61020f600480360381019061020a9190611697565b610d31565b005b6060600060026000848152602001908152602001600020905060008160030180549050905060008167ffffffffffffffff8111156102525761025161134e565b5b60405190808252806020026020018201604052801561028b57816020015b610278610fb3565b8152602001906001900390816102705790505b50905060005b828110156104de57836004018460030182815481106102b3576102b2611766565b5b906000526020600020016040516102ca9190611898565b90815260200160405180910390206040518060a00160405290816000820180546102f3906117c4565b80601f016020809104026020016040519081016040528092919081815260200182805461031f906117c4565b801561036c5780601f106103415761010080835404028352916020019161036c565b820191906000526020600020905b81548152906001019060200180831161034f57829003601f168201915b50505050508152602001600182018054610385906117c4565b80601f01602080910402602001604051908101604052809291908181526020018280546103b1906117c4565b80156103fe5780601f106103d3576101008083540402835291602001916103fe565b820191906000526020600020905b8154815290600101906020018083116103e157829003601f168201915b50505050508152602001600282018054610417906117c4565b80601f0160208091040260200160405190810160405280929190818152602001828054610443906117c4565b80156104905780601f1061046557610100808354040283529160200191610490565b820191906000526020600020905b81548152906001019060200180831161047357829003601f168201915b50505050508152602001600382015481526020016004820154815250508282815181106104c0576104bf611766565b5b602002602001018190525080806104d6906118de565b915050610291565b5060005b828110156105e85760006001826104f99190611926565b90505b838110156105d45782828151811061051757610516611766565b5b60200260200101516080015183828151811061053657610535611766565b5b60200260200101516080015111156105c157600083838151811061055d5761055c611766565b5b6020026020010151905083828151811061057a57610579611766565b5b602002602001015184848151811061059557610594611766565b5b6020026020010181905250808483815181106105b4576105b3611766565b5b6020026020010181905250505b80806105cc906118de565b9150506104fc565b5080806105e0906118de565b9150506104e2565b50809350505050919050565b6060600060026000848152602001908152602001600020905080600301805480602002602001604051908101604052809291908181526020016000905b828210156106dd578382906000526020600020018054610650906117c4565b80601f016020809104026020016040519081016040528092919081815260200182805461067c906117c4565b80156106c95780601f1061069e576101008083540402835291602001916106c9565b820191906000526020600020905b8154815290600101906020018083116106ac57829003601f168201915b505050505081526020019060010190610631565b50505050915050919050565b60006002600083815260200190815260200160002090508060020154421015610747576040517f08c379a000000000000000000000000000000000000000000000000000000000815260040161073e906119a6565b60405180910390fd5b7f3cd8b7c47b6c58690f4c0495fa321395f529c14fdd30bb08aa5564d15402ddaf828260000160405161077b929190611a4a565b60405180910390a15050565b60008054906101000a900473ffffffffffffffffffffffffffffffffffffffff1673ffffffffffffffffffffffffffffffffffffffff163373ffffffffffffffffffffffffffffffffffffffff1614610815576040517f08c379a000000000000000000000000000000000000000000000000000000000815260040161080c90611aec565b60405180910390fd5b428111610857576040517f08c379a000000000000000000000000000000000000000000000000000000000815260040161084e90611b58565b60405180910390fd5b6001600081548092919061086a906118de565b919050555060006002600060015481526020019081526020016000209050838160000190816108999190611d0f565b50828160010190816108ab9190611d0f565b508181600201819055507f83b4acd1d3c82158f22f238eaa55f295793cbc54f16b33d775ec69ef8eaadd5b6001548585856040516108ec9493929190611de1565b60405180910390a150505050565b600060026000848152602001908152602001600020905080600201544210610957576040517f08c379a000000000000000000000000000000000000000000000000000000000815260040161094e90611e80565b60405180910390fd5b8060050160003373ffffffffffffffffffffffffffffffffffffffff1673ffffffffffffffffffffffffffffffffffffffff16815260200190815260200160002060009054906101000a900460ff16156109e6576040517f08c379a00000000000000000000000000000000000000000000000000000000081526004016109dd90611f12565b60405180910390fd5b600081600401836040516109fa9190611f63565b90815260200160405180910390206001018054610a16906117c4565b905011610a58576040517f08c379a0000000000000000000000000000000000000000000000000000000008152600401610a4f90611fc6565b60405180910390fd5b8060040182604051610a6a9190611f63565b90815260200160405180910390206004016000815480929190610a8c906118de565b919050555060018160050160003373ffffffffffffffffffffffffffffffffffffffff1673ffffffffffffffffffffffffffffffffffffffff16815260200190815260200160002060006101000a81548160ff0219169083151502179055507f909b43dcc56d91024768bbc5c8d56441234580b2fd6176844960cbc7218cc0b5833384604051610b1e93929190611fe6565b60405180910390a1505050565b60008054906101000a900473ffffffffffffffffffffffffffffffffffffffff1681565b60015481565b6002602052806000526040600020600091509050806000018054610b78906117c4565b80601f0160208091040260200160405190810160405280929190818152602001828054610ba4906117c4565b8015610bf15780601f10610bc657610100808354040283529160200191610bf1565b820191906000526020600020905b815481529060010190602001808311610bd457829003601f168201915b505050505090806001018054610c06906117c4565b80601f0160208091040260200160405190810160405280929190818152602001828054610c32906117c4565b8015610c7f5780601f10610c5457610100808354040283529160200191610c7f565b820191906000526020600020905b815481529060010190602001808311610c6257829003601f168201915b5050505050908060020154905083565b606060006002600084815260200190815260200160002090508060020154421015610cf2576040518060400160405280600481526020017f4c69766500000000000000000000000000000000000000000000000000000000815250915050610d2c565b6040518060400160405280600581526020017f456e6465640000000000000000000000000000000000000000000000000000008152509150505b919050565b60008054906101000a900473ffffffffffffffffffffffffffffffffffffffff1673ffffffffffffffffffffffffffffffffffffffff163373ffffffffffffffffffffffffffffffffffffffff1614610dbf576040517f08c379a0000000000000000000000000000000000000000000000000000000008152600401610db690611aec565b60405180910390fd5b600060026000878152602001908152602001600020905080600201544210610e1c576040517f08c379a0000000000000000000000000000000000000000000000000000000008152600401610e1390612096565b60405180910390fd5b60008160040185604051610e309190611f63565b90815260200160405180910390206001018054610e4c906117c4565b905014610e8e576040517f08c379a0000000000000000000000000000000000000000000000000000000008152600401610e8590612128565b60405180910390fd5b60006040518060a0016040528087815260200186815260200185815260200184815260200160008152509050808260040186604051610ecd9190611f63565b90815260200160405180910390206000820151816000019081610ef09190611d0f565b506020820151816001019081610f069190611d0f565b506040820151816002019081610f1c9190611d0f565b5060608201518160030155608082015181600401559050508160030185908060018154018082558091505060019003906000526020600020016000909190919091509081610f6a9190611d0f565b507fb132c360d5c4c80c0d43f46e53b9b874e559e8e8ea4156a5fec2a021f826d00a8786888787604051610fa2959493929190612148565b60405180910390a150505050505050565b6040518060a0016040528060608152602001606081526020016060815260200160008152602001600081525090565b6000604051905090565b600080fd5b600080fd5b6000819050919050565b61100981610ff6565b811461101457600080fd5b50565b60008135905061102681611000565b92915050565b60006020828403121561104257611041610fec565b5b600061105084828501611017565b91505092915050565b600081519050919050565b600082825260208201905092915050565b6000819050602082019050919050565b600081519050919050565b600082825260208201905092915050565b60005b838110156110bf5780820151818401526020810190506110a4565b60008484015250505050565b6000601f19601f8301169050919050565b60006110e782611085565b6110f18185611090565b93506111018185602086016110a1565b61110a816110cb565b840191505092915050565b61111e81610ff6565b82525050565b600060a083016000830151848203600086015261114182826110dc565b9150506020830151848203602086015261115b82826110dc565b9150506040830151848203604086015261117582826110dc565b915050606083015161118a6060860182611115565b50608083015161119d6080860182611115565b508091505092915050565b60006111b48383611124565b905092915050565b6000602082019050919050565b60006111d482611059565b6111de8185611064565b9350836020820285016111f085611075565b8060005b8581101561122c578484038952815161120d85826111a8565b9450611218836111bc565b925060208a019950506001810190506111f4565b50829750879550505050505092915050565b6000602082019050818103600083015261125881846111c9565b905092915050565b600081519050919050565b600082825260208201905092915050565b6000819050602082019050919050565b600061129883836110dc565b905092915050565b6000602082019050919050565b60006112b882611260565b6112c2818561126b565b9350836020820285016112d48561127c565b8060005b8581101561131057848403895281516112f1858261128c565b94506112fc836112a0565b925060208a019950506001810190506112d8565b50829750879550505050505092915050565b6000602082019050818103600083015261133c81846112ad565b905092915050565b600080fd5b600080fd5b7f4e487b7100000000000000000000000000000000000000000000000000000000600052604160045260246000fd5b611386826110cb565b810181811067ffffffffffffffff821117156113a5576113a461134e565b5b80604052505050565b60006113b8610fe2565b90506113c4828261137d565b919050565b600067ffffffffffffffff8211156113e4576113e361134e565b5b6113ed826110cb565b9050602081019050919050565b82818337600083830152505050565b600061141c611417846113c9565b6113ae565b90508281526020810184848401111561143857611437611349565b5b6114438482856113fa565b509392505050565b600082601f8301126114605761145f611344565b5b8135611470848260208601611409565b91505092915050565b60008060006060848603121561149257611491610fec565b5b600084013567ffffffffffffffff8111156114b0576114af610ff1565b5b6114bc8682870161144b565b935050602084013567ffffffffffffffff8111156114dd576114dc610ff1565b5b6114e98682870161144b565b92505060406114fa86828701611017565b9150509250925092565b6000806040838503121561151b5761151a610fec565b5b600061152985828601611017565b925050602083013567ffffffffffffffff81111561154a57611549610ff1565b5b6115568582860161144b565b9150509250929050565b600073ffffffffffffffffffffffffffffffffffffffff82169050919050565b600061158b82611560565b9050919050565b61159b81611580565b82525050565b60006020820190506115b66000830184611592565b92915050565b6115c581610ff6565b82525050565b60006020820190506115e060008301846115bc565b92915050565b600082825260208201905092915050565b600061160282611085565b61160c81856115e6565b935061161c8185602086016110a1565b611625816110cb565b840191505092915050565b6000606082019050818103600083015261164a81866115f7565b9050818103602083015261165e81856115f7565b905061166d60408301846115bc565b949350505050565b6000602082019050818103600083015261168f81846115f7565b905092915050565b600080600080600060a086880312156116b3576116b2610fec565b5b60006116c188828901611017565b955050602086013567ffffffffffffffff8111156116e2576116e1610ff1565b5b6116ee8882890161144b565b945050604086013567ffffffffffffffff81111561170f5761170e610ff1565b5b61171b8882890161144b565b935050606086013567ffffffffffffffff81111561173c5761173b610ff1565b5b6117488882890161144b565b925050608061175988828901611017565b9150509295509295909350565b7f4e487b7100000000000000000000000000000000000000000000000000000000600052603260045260246000fd5b7f4e487b7100000000000000000000000000000000000000000000000000000000600052602260045260246000fd5b600060028204905060018216806117dc57607f821691505b6020821081036117ef576117ee611795565b5b50919050565b600081905092915050565b60008190508160005260206000209050919050565b60008154611822816117c4565b61182c81866117f5565b94506001821660008114611847576001811461185c5761188f565b60ff198316865281151582028601935061188f565b61186585611800565b60005b8381101561188757815481890152600182019150602081019050611868565b838801955050505b50505092915050565b60006118a48284611815565b915081905092915050565b7f4e487b7100000000000000000000000000000000000000000000000000000000600052601160045260246000fd5b60006118e982610ff6565b91507fffffffffffffffffffffffffffffffffffffffffffffffffffffffffffffffff820361191b5761191a6118af565b5b600182019050919050565b600061193182610ff6565b915061193c83610ff6565b9250828201905080821115611954576119536118af565b5b92915050565b7f506f6c6c206973207374696c6c206c6976650000000000000000000000000000600082015250565b60006119906012836115e6565b915061199b8261195a565b602082019050919050565b600060208201905081810360008301526119bf81611983565b9050919050565b600081546119d3816117c4565b6119dd81866115e6565b945060018216600081146119f85760018114611a0e57611a41565b60ff198316865281151560200286019350611a41565b611a1785611800565b60005b83811015611a3957815481890152600182019150602081019050611a1a565b808801955050505b50505092915050565b6000604082019050611a5f60008301856115bc565b8181036020830152611a7181846119c6565b90509392505050565b7f4f6e6c79206f776e65722063616e20706572666f726d2074686973206163746960008201527f6f6e000000000000000000000000000000000000000000000000000000000000602082015250565b6000611ad66022836115e6565b9150611ae182611a7a565b604082019050919050565b60006020820190508181036000830152611b0581611ac9565b9050919050565b7f446561646c696e65206d75737420626520696e20746865206675747572650000600082015250565b6000611b42601e836115e6565b9150611b4d82611b0c565b602082019050919050565b60006020820190508181036000830152611b7181611b35565b9050919050565b60006020601f8301049050919050565b600082821b905092915050565b600060088302611bc57fffffffffffffffffffffffffffffffffffffffffffffffffffffffffffffffff82611b88565b611bcf8683611b88565b95508019841693508086168417925050509392505050565b6000819050919050565b6000611c0c611c07611c0284610ff6565b611be7565b610ff6565b9050919050565b6000819050919050565b611c2683611bf1565b611c3a611c3282611c13565b848454611b95565b825550505050565b600090565b611c4f611c42565b611c5a818484611c1d565b505050565b5b81811015611c7e57611c73600082611c47565b600181019050611c60565b5050565b601f821115611cc357611c9481611800565b611c9d84611b78565b81016020851015611cac578190505b611cc0611cb885611b78565b830182611c5f565b50505b505050565b600082821c905092915050565b6000611ce660001984600802611cc8565b1980831691505092915050565b6000611cff8383611cd5565b9150826002028217905092915050565b611d1882611085565b67ffffffffffffffff811115611d3157611d3061134e565b5b611d3b82546117c4565b611d46828285611c82565b600060209050601f831160018114611d795760008415611d67578287015190505b611d718582611cf3565b865550611dd9565b601f198416611d8786611800565b60005b82811015611daf57848901518255600182019150602085019450602081019050611d8a565b86831015611dcc5784890151611dc8601f891682611cd5565b8355505b6001600288020188555050505b505050505050565b6000608082019050611df660008301876115bc565b8181036020830152611e0881866115f7565b90508181036040830152611e1c81856115f7565b9050611e2b60608301846115bc565b95945050505050565b7f506f6c6c2068617320616c726561647920656e64656400000000000000000000600082015250565b6000611e6a6016836115e6565b9150611e7582611e34565b602082019050919050565b60006020820190508181036000830152611e9981611e5d565b9050919050565b7f596f75206861766520616c726561647920766f74656420696e2074686973207060008201527f6f6c6c0000000000000000000000000000000000000000000000000000000000602082015250565b6000611efc6023836115e6565b9150611f0782611ea0565b604082019050919050565b60006020820190508181036000830152611f2b81611eef565b9050919050565b6000611f3d82611085565b611f4781856117f5565b9350611f578185602086016110a1565b80840191505092915050565b6000611f6f8284611f32565b915081905092915050565b7f496e76616c69642063616e646964617465000000000000000000000000000000600082015250565b6000611fb06011836115e6565b9150611fbb82611f7a565b602082019050919050565b60006020820190508181036000830152611fdf81611fa3565b9050919050565b6000606082019050611ffb60008301866115bc565b6120086020830185611592565b818103604083015261201a81846115f7565b9050949350505050565b7f43616e6e6f74206164642063616e64696461746573206166746572207468652060008201527f706f6c6c20686173207374617274656400000000000000000000000000000000602082015250565b60006120806030836115e6565b915061208b82612024565b604082019050919050565b600060208201905081810360008301526120af81612073565b9050919050565b7f43616e64696461746520616c72656164792065786973747320696e207468697360008201527f20706f6c6c000000000000000000000000000000000000000000000000000000602082015250565b60006121126025836115e6565b915061211d826120b6565b604082019050919050565b6000602082019050818103600083015261214181612105565b9050919050565b600060a08201905061215d60008301886115bc565b818103602083015261216f81876115f7565b9050818103604083015261218381866115f7565b9050818103606083015261219781856115f7565b90506121a660808301846115bc565b969550505050505056fea2646970667358221220d8fffa89e458aba674bb882627023efb03eea1b66b4fca5f85e16e4ceaf1ce6764736f6c63430008130033",
  "linkReferences": {},
  "deployedLinkReferences": {}
}