{
  "_format": "hh-sol-artifact-1",
  "contractName": "ComplaintSystem",
  "sourceName": "contracts/ComplaintSystem.sol",
  "abi": [
    {
      "anonymous": false,
      "inputs": [
        {
          "indexed": false,
          "internalType": "uint256",
          "name": "id",
          "type": "uint256"
        },
        {
          "indexed": false,
          "internalType": "string",
          "name": "category",
          "type": "string"
        },
        {
          "indexed": false,
          "internalType": "string",
          "name": "description",
          "type": "string"
        },
        {
          "indexed": false,
          "internalType": "uint256",
          "name": "timestamp",
          "type": "uint256"
        },
        {
          "indexed": false,
          "internalType": "string",
          "name": "status",
          "type": "string"
        }
      ],
      "name": "ComplaintAdded",
      "type": "event"
    },
    {
      "inputs": [
        {
          "internalType": "string",
          "name": "_category",
          "type": "string"
        },
        {
          "internalType": "string",
          "name": "_description",
          "type": "string"
        }
      ],
      "name": "addComplaint",
      "outputs": [],
      "stateMutability": "nonpayable",
      "type": "function"
    },
    {
      "inputs": [
        {
          "internalType": "uint256",
          "name": "",
          "type": "uint256"
        }
      ],
      "name": "complaints",
      "outputs": [
        {
          "internalType": "uint256",
          "name": "id",
          "type": "uint256"
        },
        {
          "internalType": "string",
          "name": "category",
          "type": "string"
        },
        {
          "internalType": "string",
          "name": "description",
          "type": "string"
        },
        {
          "internalType": "uint256",
          "name": "timestamp",
          "type": "uint256"
        },
        {
          "internalType": "string",
          "name": "status",
          "type": "string"
        }
      ],
      "stateMutability": "view",
      "type": "function"
    },
    {
      "inputs": [],
      "name": "getAllComplaints",
      "outputs": [
        {
          "components": [
            {
              "internalType": "uint256",
              "name": "id",
              "type": "uint256"
            },
            {
              "internalType": "string",
              "name": "category",
              "type": "string"
            },
            {
              "internalType": "string",
              "name": "description",
              "type": "string"
            },
            {
              "internalType": "uint256",
              "name": "timestamp",
              "type": "uint256"
            },
            {
              "internalType": "string",
              "name": "status",
              "type": "string"
            }
          ],
          "internalType": "struct ComplaintSystem.Complaint[]",
          "name": "",
          "type": "tuple[]"
        }
      ],
      "stateMutability": "view",
      "type": "function"
    },
    {
      "inputs": [
        {
          "internalType": "uint256",
          "name": "_id",
          "type": "uint256"
        }
      ],
      "name": "getComplaint",
      "outputs": [
        {
          "internalType": "uint256",
          "name": "",
          "type": "uint256"
        },
        {
          "internalType": "string",
          "name": "",
          "type": "string"
        },
        {
          "internalType": "string",
          "name": "",
          "type": "string"
        },
        {
          "internalType": "uint256",
          "name": "",
          "type": "uint256"
        },
        {
          "internalType": "string",
          "name": "",
          "type": "string"
        }
      ],
      "stateMutability": "view",
      "type": "function"
    },
    {
      "inputs": [
        {
          "internalType": "uint256",
          "name": "_id",
          "type": "uint256"
        },
        {
          "internalType": "string",
          "name": "_newStatus",
          "type": "string"
        }
      ],
      "name": "updateComplaintStatus",
      "outputs": [],
      "stateMutability": "nonpayable",
      "type": "function"
    }
  ],
  "bytecode": "0x608060405234801561001057600080fd5b506112e8806100206000396000f3fe608060405234801561001057600080fd5b50600436106100565760003560e01c80628783631461005b5780630dac9539146100775780636fafbdd7146100955780637e69e912146100b1578063dee8ae43146100e5575b600080fd5b61007560048036038101906100709190610a99565b610119565b005b61007f610243565b60405161008c9190610cef565b60405180910390f35b6100af60048036038101906100aa9190610d3d565b61046c565b005b6100cb60048036038101906100c69190610d99565b6104ea565b6040516100dc959493929190610e1f565b60405180910390f35b6100ff60048036038101906100fa9190610d99565b6106c8565b604051610110959493929190610e1f565b60405180910390f35b60008080549050905060006040518060a001604052808381526020018581526020018481526020014281526020016040518060400160405280600481526020017f4f70656e0000000000000000000000000000000000000000000000000000000081525081525090806001815401808255809150506001900390600052602060002090600502016000909190919091506000820151816000015560208201518160010190816101c89190611093565b5060408201518160020190816101de9190611093565b506060820151816003015560808201518160040190816101fe9190611093565b5050507fc7fd2cb153a3fcd780e74725f8dc07253618354de3c9da6666feb1fa04cdf5dd8184844260405161023694939291906111b1565b60405180910390a1505050565b60606000805480602002602001604051908101604052809291908181526020016000905b8282101561046357838290600052602060002090600502016040518060a0016040529081600082015481526020016001820180546102a490610eb6565b80601f01602080910402602001604051908101604052809291908181526020018280546102d090610eb6565b801561031d5780601f106102f25761010080835404028352916020019161031d565b820191906000526020600020905b81548152906001019060200180831161030057829003601f168201915b5050505050815260200160028201805461033690610eb6565b80601f016020809104026020016040519081016040528092919081815260200182805461036290610eb6565b80156103af5780601f10610384576101008083540402835291602001916103af565b820191906000526020600020905b81548152906001019060200180831161039257829003601f168201915b50505050508152602001600382015481526020016004820180546103d290610eb6565b80601f01602080910402602001604051908101604052809291908181526020018280546103fe90610eb6565b801561044b5780601f106104205761010080835404028352916020019161044b565b820191906000526020600020905b81548152906001019060200180831161042e57829003601f168201915b50505050508152505081526020019060010190610267565b50505050905090565b60008054905082106104b3576040517f08c379a00000000000000000000000000000000000000000000000000000000081526004016104aa90611263565b60405180910390fd5b80600083815481106104c8576104c7611283565b5b906000526020600020906005020160040190816104e59190611093565b505050565b600081815481106104fa57600080fd5b906000526020600020906005020160009150905080600001549080600101805461052390610eb6565b80601f016020809104026020016040519081016040528092919081815260200182805461054f90610eb6565b801561059c5780601f106105715761010080835404028352916020019161059c565b820191906000526020600020905b81548152906001019060200180831161057f57829003601f168201915b5050505050908060020180546105b190610eb6565b80601f01602080910402602001604051908101604052809291908181526020018280546105dd90610eb6565b801561062a5780601f106105ff5761010080835404028352916020019161062a565b820191906000526020600020905b81548152906001019060200180831161060d57829003601f168201915b50505050509080600301549080600401805461064590610eb6565b80601f016020809104026020016040519081016040528092919081815260200182805461067190610eb6565b80156106be5780601f10610693576101008083540402835291602001916106be565b820191906000526020600020905b8154815290600101906020018083116106a157829003601f168201915b5050505050905085565b6000606080600060606000805490508610610718576040517f08c379a000000000000000000000000000000000000000000000000000000000815260040161070f90611263565b60405180910390fd5b600080878154811061072d5761072c611283565b5b90600052602060002090600502016040518060a00160405290816000820154815260200160018201805461076090610eb6565b80601f016020809104026020016040519081016040528092919081815260200182805461078c90610eb6565b80156107d95780601f106107ae576101008083540402835291602001916107d9565b820191906000526020600020905b8154815290600101906020018083116107bc57829003601f168201915b505050505081526020016002820180546107f290610eb6565b80601f016020809104026020016040519081016040528092919081815260200182805461081e90610eb6565b801561086b5780601f106108405761010080835404028352916020019161086b565b820191906000526020600020905b81548152906001019060200180831161084e57829003601f168201915b505050505081526020016003820154815260200160048201805461088e90610eb6565b80601f01602080910402602001604051908101604052809291908181526020018280546108ba90610eb6565b80156109075780601f106108dc57610100808354040283529160200191610907565b820191906000526020600020905b8154815290600101906020018083116108ea57829003601f168201915b505050505081525050905080600001518160200151826040015183606001518460800151955095509550955095505091939590929450565b6000604051905090565b600080fd5b600080fd5b600080fd5b600080fd5b6000601f19601f8301169050919050565b7f4e487b7100000000000000000000000000000000000000000000000000000000600052604160045260246000fd5b6109a68261095d565b810181811067ffffffffffffffff821117156109c5576109c461096e565b5b80604052505050565b60006109d861093f565b90506109e4828261099d565b919050565b600067ffffffffffffffff821115610a0457610a0361096e565b5b610a0d8261095d565b9050602081019050919050565b82818337600083830152505050565b6000610a3c610a37846109e9565b6109ce565b905082815260208101848484011115610a5857610a57610958565b5b610a63848285610a1a565b509392505050565b600082601f830112610a8057610a7f610953565b5b8135610a90848260208601610a29565b91505092915050565b60008060408385031215610ab057610aaf610949565b5b600083013567ffffffffffffffff811115610ace57610acd61094e565b5b610ada85828601610a6b565b925050602083013567ffffffffffffffff811115610afb57610afa61094e565b5b610b0785828601610a6b565b9150509250929050565b600081519050919050565b600082825260208201905092915050565b6000819050602082019050919050565b6000819050919050565b610b5081610b3d565b82525050565b600081519050919050565b600082825260208201905092915050565b60005b83811015610b90578082015181840152602081019050610b75565b60008484015250505050565b6000610ba782610b56565b610bb18185610b61565b9350610bc1818560208601610b72565b610bca8161095d565b840191505092915050565b600060a083016000830151610bed6000860182610b47565b5060208301518482036020860152610c058282610b9c565b91505060408301518482036040860152610c1f8282610b9c565b9150506060830151610c346060860182610b47565b5060808301518482036080860152610c4c8282610b9c565b9150508091505092915050565b6000610c658383610bd5565b905092915050565b6000602082019050919050565b6000610c8582610b11565b610c8f8185610b1c565b935083602082028501610ca185610b2d565b8060005b85811015610cdd5784840389528151610cbe8582610c59565b9450610cc983610c6d565b925060208a01995050600181019050610ca5565b50829750879550505050505092915050565b60006020820190508181036000830152610d098184610c7a565b905092915050565b610d1a81610b3d565b8114610d2557600080fd5b50565b600081359050610d3781610d11565b92915050565b60008060408385031215610d5457610d53610949565b5b6000610d6285828601610d28565b925050602083013567ffffffffffffffff811115610d8357610d8261094e565b5b610d8f85828601610a6b565b9150509250929050565b600060208284031215610daf57610dae610949565b5b6000610dbd84828501610d28565b91505092915050565b610dcf81610b3d565b82525050565b600082825260208201905092915050565b6000610df182610b56565b610dfb8185610dd5565b9350610e0b818560208601610b72565b610e148161095d565b840191505092915050565b600060a082019050610e346000830188610dc6565b8181036020830152610e468187610de6565b90508181036040830152610e5a8186610de6565b9050610e696060830185610dc6565b8181036080830152610e7b8184610de6565b90509695505050505050565b7f4e487b7100000000000000000000000000000000000000000000000000000000600052602260045260246000fd5b60006002820490506001821680610ece57607f821691505b602082108103610ee157610ee0610e87565b5b50919050565b60008190508160005260206000209050919050565b60006020601f8301049050919050565b600082821b905092915050565b600060088302610f497fffffffffffffffffffffffffffffffffffffffffffffffffffffffffffffffff82610f0c565b610f538683610f0c565b95508019841693508086168417925050509392505050565b6000819050919050565b6000610f90610f8b610f8684610b3d565b610f6b565b610b3d565b9050919050565b6000819050919050565b610faa83610f75565b610fbe610fb682610f97565b848454610f19565b825550505050565b600090565b610fd3610fc6565b610fde818484610fa1565b505050565b5b8181101561100257610ff7600082610fcb565b600181019050610fe4565b5050565b601f8211156110475761101881610ee7565b61102184610efc565b81016020851015611030578190505b61104461103c85610efc565b830182610fe3565b50505b505050565b600082821c905092915050565b600061106a6000198460080261104c565b1980831691505092915050565b60006110838383611059565b9150826002028217905092915050565b61109c82610b56565b67ffffffffffffffff8111156110b5576110b461096e565b5b6110bf8254610eb6565b6110ca828285611006565b600060209050601f8311600181146110fd57600084156110eb578287015190505b6110f58582611077565b86555061115d565b601f19841661110b86610ee7565b60005b828110156111335784890151825560018201915060208501945060208101905061110e565b86831015611150578489015161114c601f891682611059565b8355505b6001600288020188555050505b505050505050565b7f4f70656e00000000000000000000000000000000000000000000000000000000600082015250565b600061119b600483610dd5565b91506111a682611165565b602082019050919050565b600060a0820190506111c66000830187610dc6565b81810360208301526111d88186610de6565b905081810360408301526111ec8185610de6565b90506111fb6060830184610dc6565b818103608083015261120c8161118e565b905095945050505050565b7f436f6d706c61696e7420494420646f6573206e6f742065786973742e00000000600082015250565b600061124d601c83610dd5565b915061125882611217565b602082019050919050565b6000602082019050818103600083015261127c81611240565b9050919050565b7f4e487b7100000000000000000000000000000000000000000000000000000000600052603260045260246000fdfea26469706673582212204a0c3d18e7abe96733cc5367326f6ba63b5533e9effc7faacd5c6c763e84434b64736f6c63430008130033",
  "linkReferences": {},
  "deployedLinkReferences": {}
}